{
  "contractName": "InUse",
  "abi": [
    {
      "constant": false,
      "inputs": [
        {
          "internalType": "uint256",
          "name": "_startTime",
          "type": "uint256"
        },
        {
          "internalType": "string",
          "name": "_userID",
          "type": "string"
        }
      ],
      "name": "addService1",
      "outputs": [],
      "payable": false,
      "stateMutability": "nonpayable",
      "type": "function"
    },
    {
      "constant": false,
      "inputs": [
        {
          "internalType": "string",
          "name": "_userID",
          "type": "string"
        }
      ],
      "name": "changeService1",
      "outputs": [],
      "payable": false,
      "stateMutability": "nonpayable",
      "type": "function"
    },
    {
      "constant": true,
      "inputs": [
        {
          "internalType": "string",
          "name": "_userID",
          "type": "string"
        }
      ],
      "name": "getService1",
      "outputs": [
        {
          "internalType": "bool",
          "name": "",
          "type": "bool"
        }
      ],
      "payable": false,
      "stateMutability": "view",
      "type": "function"
    },
    {
      "constant": false,
      "inputs": [
        {
          "internalType": "uint256",
          "name": "_startTime",
          "type": "uint256"
        },
        {
          "internalType": "string",
          "name": "_userID",
          "type": "string"
        }
      ],
      "name": "addService2",
      "outputs": [],
      "payable": false,
      "stateMutability": "nonpayable",
      "type": "function"
    },
    {
      "constant": false,
      "inputs": [
        {
          "internalType": "string",
          "name": "_userID",
          "type": "string"
        }
      ],
      "name": "changeService2",
      "outputs": [],
      "payable": false,
      "stateMutability": "nonpayable",
      "type": "function"
    },
    {
      "constant": true,
      "inputs": [
        {
          "internalType": "string",
          "name": "_userID",
          "type": "string"
        }
      ],
      "name": "getService2",
      "outputs": [
        {
          "internalType": "bool",
          "name": "",
          "type": "bool"
        }
      ],
      "payable": false,
      "stateMutability": "view",
      "type": "function"
    }
  ],
  "bytecode": "0x608060405234801561001057600080fd5b506106cf806100206000396000f3fe608060405234801561001057600080fd5b50600436106100625760003560e01c80630887ef221461006757806334d44be614610097578063389434b8146100b35780633d203970146100cf5780638329ce5a146100eb578063a4e299951461011b575b600080fd5b610081600480360361007c91908101906104a7565b610137565b60405161008e9190610593565b60405180910390f35b6100b160048036036100ac91908101906104a7565b61016e565b005b6100cd60048036036100c891908101906104e8565b6101aa565b005b6100e960048036036100e491908101906104a7565b610244565b005b610105600480360361010091908101906104a7565b610281565b6040516101129190610593565b60405180910390f35b610135600480360361013091908101906104e8565b6102b9565b005b60008082604051610148919061057c565b908152602001604051809103902060020160009054906101000a900460ff169050919050565b6000808260405161017f919061057c565b908152602001604051809103902060020160006101000a81548160ff02191690831515021790555050565b6101b2610353565b828160000181815250508181602001819052506001816040019015159081151581525050806001836040516101e7919061057c565b908152602001604051809103902060008201518160000155602082015181600101908051906020019061021b929190610376565b5060408201518160020160006101000a81548160ff021916908315150217905550905050505050565b6000600182604051610256919061057c565b908152602001604051809103902060020160006101000a81548160ff02191690831515021790555050565b6000600182604051610293919061057c565b908152602001604051809103902060020160009054906101000a900460ff169050919050565b6102c16103f6565b828160000181815250508181602001819052506001816040019015159081151581525050806000836040516102f6919061057c565b908152602001604051809103902060008201518160000155602082015181600101908051906020019061032a929190610376565b5060408201518160020160006101000a81548160ff021916908315150217905550905050505050565b604051806060016040528060008152602001606081526020016000151581525090565b828054600181600116156101000203166002900490600052602060002090601f016020900481019282601f106103b757805160ff19168380011785556103e5565b828001600101855582156103e5579182015b828111156103e45782518255916020019190600101906103c9565b5b5090506103f29190610419565b5090565b604051806060016040528060008152602001606081526020016000151581525090565b61043b91905b8082111561043757600081600090555060010161041f565b5090565b90565b600082601f83011261044f57600080fd5b813561046261045d826105db565b6105ae565b9150808252602083016020830185838301111561047e57600080fd5b610489838284610633565b50505092915050565b6000813590506104a181610675565b92915050565b6000602082840312156104b957600080fd5b600082013567ffffffffffffffff8111156104d357600080fd5b6104df8482850161043e565b91505092915050565b600080604083850312156104fb57600080fd5b600061050985828601610492565b925050602083013567ffffffffffffffff81111561052657600080fd5b6105328582860161043e565b9150509250929050565b6105458161061d565b82525050565b600061055682610607565b6105608185610612565b9350610570818560208601610642565b80840191505092915050565b6000610588828461054b565b915081905092915050565b60006020820190506105a8600083018461053c565b92915050565b6000604051905081810181811067ffffffffffffffff821117156105d157600080fd5b8060405250919050565b600067ffffffffffffffff8211156105f257600080fd5b601f19601f8301169050602081019050919050565b600081519050919050565b600081905092915050565b60008115159050919050565b6000819050919050565b82818337600083830152505050565b60005b83811015610660578082015181840152602081019050610645565b8381111561066f576000848401525b50505050565b61067e81610629565b811461068957600080fd5b5056fea365627a7a72315820b5edd33e1beae5bb43a4a601de1ecb5f805b34901c239783a83891ceb1f953fa6c6578706572696d656e74616cf564736f6c63430005100040",
  "source": "// SPDX-License-Identifier: MIT\r\npragma solidity >=0.4.22 <0.9.0;\r\npragma experimental ABIEncoderV2;\r\n\r\n\r\ncontract InUse {\r\n    struct service1 { \r\n        uint256 startTime;\r\n        string userID;\r\n        bool inUse;\r\n    }\r\n    mapping(string => service1) service1Map;\r\n\r\n    function addService1(uint256 _startTime, string memory _userID) public {\r\n        service1 memory s;\r\n        s.startTime = _startTime;\r\n        s.userID = _userID;\r\n        s.inUse = true;\r\n        service1Map[_userID] = s;\r\n    }\r\n    function changeService1(string memory _userID) public {\r\n        service1Map[_userID].inUse = false;\r\n    }\r\n    function getService1(string memory _userID) public view returns(bool){\r\n        return service1Map[_userID].inUse;\r\n    }\r\n\r\n    struct service2 { \r\n        uint256 startTime;\r\n        string userID;\r\n        bool inUse;\r\n    }\r\n    mapping(string => service2) service2Map;\r\n\r\n    function addService2(uint256 _startTime, string memory _userID) public {\r\n        service2 memory s;\r\n        s.startTime = _startTime;\r\n        s.userID = _userID;\r\n        s.inUse = true;\r\n        service2Map[_userID] = s;\r\n    }\r\n    function changeService2(string memory _userID) public {\r\n        service2Map[_userID].inUse = false;\r\n    }\r\n    function getService2(string memory _userID) public view returns(bool){\r\n        return service2Map[_userID].inUse;\r\n    }\r\n\r\n}",
  "sourcePath": "D:\\Codes\\Minor 2\\vaibhav\\minor-2\\backend\\contract\\contracts\\serviceInUse.sol",
  "compiler": {
    "name": "solc",
    "version": "0.5.16+commit.9c3226ce.Emscripten.clang"
  },
  "schemaVersion": "3.4.7",
  "updatedAt": "2022-05-11T06:11:35.689Z",
  "networkType": "ethereum",
  "devdoc": {
    "methods": {}
  },
  "userdoc": {
    "methods": {}
  }
}