{
  "contractName": "Services",
  "abi": [
    {
      "constant": false,
      "inputs": [
        {
          "internalType": "uint256",
          "name": "_startTime",
          "type": "uint256"
        },
        {
          "internalType": "uint256",
          "name": "_endTime",
          "type": "uint256"
        },
        {
          "internalType": "string[]",
          "name": "_memberIDs",
          "type": "string[]"
        },
        {
          "internalType": "string",
          "name": "_userID",
          "type": "string"
        },
        {
          "internalType": "uint256",
          "name": "_serviceID",
          "type": "uint256"
        }
      ],
      "name": "addService",
      "outputs": [],
      "payable": false,
      "stateMutability": "nonpayable",
      "type": "function"
    },
    {
      "constant": true,
      "inputs": [
        {
          "internalType": "string",
          "name": "_userID",
          "type": "string"
        }
      ],
      "name": "getService",
      "outputs": [
        {
          "components": [
            {
              "internalType": "uint256",
              "name": "startTime",
              "type": "uint256"
            },
            {
              "internalType": "uint256",
              "name": "endTime",
              "type": "uint256"
            },
            {
              "internalType": "string[]",
              "name": "memberIDs",
              "type": "string[]"
            },
            {
              "internalType": "string",
              "name": "userID",
              "type": "string"
            },
            {
              "internalType": "uint256",
              "name": "serviceID",
              "type": "uint256"
            }
          ],
          "internalType": "struct Services.log[]",
          "name": "",
          "type": "tuple[]"
        }
      ],
      "payable": false,
      "stateMutability": "view",
      "type": "function"
    }
  ],
  "bytecode": "0x608060405234801561001057600080fd5b50610b9c806100206000396000f3fe608060405234801561001057600080fd5b50600436106100365760003560e01c8063794758be1461003b578063ee61a97f1461006b575b600080fd5b6100556004803603610050919081019061066b565b610087565b6040516100629190610972565b60405180910390f35b610085600480360361008091908101906106ac565b6102ad565b005b6060600082604051610099919061095b565b9081526020016040518091039020805480602002602001604051908101604052809291908181526020016000905b828210156102a257838290600052602060002090600502016040518060a0016040529081600082015481526020016001820154815260200160028201805480602002602001604051908101604052809291908181526020016000905b828210156101df578382906000526020600020018054600181600116156101000203166002900480601f0160208091040260200160405190810160405280929190818152602001828054600181600116156101000203166002900480156101cb5780601f106101a0576101008083540402835291602001916101cb565b820191906000526020600020905b8154815290600101906020018083116101ae57829003601f168201915b505050505081526020019060010190610123565b505050508152602001600382018054600181600116156101000203166002900480601f0160208091040260200160405190810160405280929190818152602001828054600181600116156101000203166002900480156102805780601f1061025557610100808354040283529160200191610280565b820191906000526020600020905b81548152906001019060200180831161026357829003601f168201915b50505050508152602001600482015481525050815260200190600101906100c7565b505050509050919050565b6102b5610392565b8581600001818152505084816020018181525050828160600181905250838160400181905250818160800181815250506000836040516102f5919061095b565b908152602001604051809103902081908060018154018082558091505090600182039060005260206000209060050201600090919290919091506000820151816000015560208201518160010155604082015181600201908051906020019061035f9291906103c1565b50606082015181600301908051906020019061037c929190610421565b5060808201518160040155505050505050505050565b6040518060a0016040528060008152602001600081526020016060815260200160608152602001600081525090565b828054828255906000526020600020908101928215610410579160200282015b8281111561040f5782518290805190602001906103ff929190610421565b50916020019190600101906103e1565b5b50905061041d91906104a1565b5090565b828054600181600116156101000203166002900490600052602060002090601f016020900481019282601f1061046257805160ff1916838001178555610490565b82800160010185558215610490579182015b8281111561048f578251825591602001919060010190610474565b5b50905061049d91906104cd565b5090565b6104ca91905b808211156104c657600081816104bd91906104f2565b506001016104a7565b5090565b90565b6104ef91905b808211156104eb5760008160009055506001016104d3565b5090565b90565b50805460018160011615610100020316600290046000825580601f106105185750610537565b601f01602090049060005260206000209081019061053691906104cd565b5b50565b600082601f83011261054b57600080fd5b813561055e610559826109c1565b610994565b9150818183526020840193506020810190508360005b838110156105a4578135860161058a88826105ae565b845260208401935060208301925050600181019050610574565b5050505092915050565b600082601f8301126105bf57600080fd5b81356105d26105cd826109e9565b610994565b915080825260208301602083018583830111156105ee57600080fd5b6105f9838284610aef565b50505092915050565b600082601f83011261061357600080fd5b813561062661062182610a15565b610994565b9150808252602083016020830185838301111561064257600080fd5b61064d838284610aef565b50505092915050565b60008135905061066581610b42565b92915050565b60006020828403121561067d57600080fd5b600082013567ffffffffffffffff81111561069757600080fd5b6106a384828501610602565b91505092915050565b600080600080600060a086880312156106c457600080fd5b60006106d288828901610656565b95505060206106e388828901610656565b945050604086013567ffffffffffffffff81111561070057600080fd5b61070c8882890161053a565b935050606086013567ffffffffffffffff81111561072957600080fd5b61073588828901610602565b925050608061074688828901610656565b9150509295509295909350565b600061075f8383610896565b905092915050565b600061077383836108cf565b905092915050565b600061078682610a61565b6107908185610aa7565b9350836020820285016107a285610a41565b8060005b858110156107de57848403895281516107bf8582610753565b94506107ca83610a8d565b925060208a019950506001810190506107a6565b50829750879550505050505092915050565b60006107fb82610a6c565b6108058185610ab8565b93508360208202850161081785610a51565b8060005b8581101561085357848403895281516108348582610767565b945061083f83610a9a565b925060208a0199505060018101905061081b565b50829750879550505050505092915050565b600061087082610a82565b61087a8185610ada565b935061088a818560208601610afe565b80840191505092915050565b60006108a182610a77565b6108ab8185610ac9565b93506108bb818560208601610afe565b6108c481610b31565b840191505092915050565b600060a0830160008301516108e7600086018261094c565b5060208301516108fa602086018261094c565b5060408301518482036040860152610912828261077b565b9150506060830151848203606086015261092c8282610896565b9150506080830151610941608086018261094c565b508091505092915050565b61095581610ae5565b82525050565b60006109678284610865565b915081905092915050565b6000602082019050818103600083015261098c81846107f0565b905092915050565b6000604051905081810181811067ffffffffffffffff821117156109b757600080fd5b8060405250919050565b600067ffffffffffffffff8211156109d857600080fd5b602082029050602081019050919050565b600067ffffffffffffffff821115610a0057600080fd5b601f19601f8301169050602081019050919050565b600067ffffffffffffffff821115610a2c57600080fd5b601f19601f8301169050602081019050919050565b6000819050602082019050919050565b6000819050602082019050919050565b600081519050919050565b600081519050919050565b600081519050919050565b600081519050919050565b6000602082019050919050565b6000602082019050919050565b600082825260208201905092915050565b600082825260208201905092915050565b600082825260208201905092915050565b600081905092915050565b6000819050919050565b82818337600083830152505050565b60005b83811015610b1c578082015181840152602081019050610b01565b83811115610b2b576000848401525b50505050565b6000601f19601f8301169050919050565b610b4b81610ae5565b8114610b5657600080fd5b5056fea365627a7a723158207fe46676c98b78a7728b0e752ade1d388d923f8196a731f9131982b230a820cb6c6578706572696d656e74616cf564736f6c63430005100040",
  "source": "// SPDX-License-Identifier: MIT\r\npragma solidity >=0.4.22 <0.9.0;\r\npragma experimental ABIEncoderV2;\r\n\r\n\r\ncontract Services {\r\n    struct log { \r\n        uint256 startTime;\r\n        uint256 endTime;\r\n        string[] memberIDs;\r\n        string userID;\r\n        uint256 serviceID;\r\n    }\r\n    mapping(string => log[]) serviceMap;\r\n\r\n    function addService(uint256 _startTime, uint256 _endTime,string[] memory _memberIDs, string memory _userID, uint256 _serviceID) public {\r\n        log memory s;\r\n        s.startTime = _startTime;\r\n        s.endTime = _endTime;\r\n        s.userID = _userID;\r\n        s.memberIDs = _memberIDs;\r\n        s.serviceID = _serviceID;\r\n        serviceMap[_userID].push(s);\r\n    }\r\n\r\n    function getService(string memory _userID) public view returns(log[] memory){\r\n        return serviceMap[_userID];\r\n    }\r\n\r\n}",
  "sourcePath": "D:\\Codes\\Minor 2\\vaibhav\\minor-2\\backend\\contract\\contracts\\services.sol",
  "compiler": {
    "name": "solc",
    "version": "0.5.16+commit.9c3226ce.Emscripten.clang"
  },
  "schemaVersion": "3.4.7",
  "updatedAt": "2022-05-11T06:11:35.692Z",
  "networkType": "ethereum",
  "devdoc": {
    "methods": {}
  },
  "userdoc": {
    "methods": {}
  }
}